{
    "_format": "hh-sol-artifact-1",
    "contractName": "MemberPortal",
    "sourceName": "contracts/Fsociety_Member.sol",
    "abi": [
        {
            "inputs": [],
            "stateMutability": "nonpayable",
            "type": "constructor"
        },
        {
            "anonymous": false,
            "inputs": [
                {
                    "indexed": true,
                    "internalType": "address",
                    "name": "member",
                    "type": "address"
                },
                {
                    "indexed": false,
                    "internalType": "uint256",
                    "name": "timestamp",
                    "type": "uint256"
                },
                {
                    "indexed": false,
                    "internalType": "string",
                    "name": "message",
                    "type": "string"
                }
            ],
            "name": "NewMember",
            "type": "event"
        },
        {
            "inputs": [],
            "name": "getAllMembers",
            "outputs": [
                {
                    "components": [
                        {
                            "internalType": "address",
                            "name": "member",
                            "type": "address"
                        },
                        {
                            "internalType": "string",
                            "name": "message",
                            "type": "string"
                        },
                        {
                            "internalType": "uint256",
                            "name": "timestamp",
                            "type": "uint256"
                        }
                    ],
                    "internalType": "struct MemberPortal.Member[]",
                    "name": "",
                    "type": "tuple[]"
                }
            ],
            "stateMutability": "view",
            "type": "function"
        },
        {
            "inputs": [],
            "name": "getTotalMembers",
            "outputs": [
                {
                    "internalType": "uint256",
                    "name": "",
                    "type": "uint256"
                }
            ],
            "stateMutability": "view",
            "type": "function"
        },
        {
            "inputs": [
                {
                    "internalType": "string",
                    "name": "_message",
                    "type": "string"
                }
            ],
            "name": "join",
            "outputs": [],
            "stateMutability": "nonpayable",
            "type": "function"
        }
    ],
    "bytecode": "0x608060405234801561001057600080fd5b5061094c806100206000396000f3fe608060405234801561001057600080fd5b50600436106100415760003560e01c80636a786b07146100465780637c0f6b35146100625780638f18030514610080575b600080fd5b610060600480360381019061005b919061052d565b61009e565b005b61006a6101d6565b604051610077919061076a565b60405180910390f35b610088610327565b604051610095919061079b565b60405180910390f35b60016000808282546100b091906107e5565b92505081905550600160405180606001604052803373ffffffffffffffffffffffffffffffffffffffff16815260200183815260200142815250908060018154018082558091505060019003906000526020600020906003020160009091909190915060008201518160000160006101000a81548173ffffffffffffffffffffffffffffffffffffffff021916908373ffffffffffffffffffffffffffffffffffffffff1602179055506020820151816001019080519060200190610176929190610330565b506040820151816002015550503373ffffffffffffffffffffffffffffffffffffffff167f8ed778be1ba0b73ad5415927591987b31faef39939a934a965142ee2d4169c4242836040516101cb929190610885565b60405180910390a250565b60606001805480602002602001604051908101604052809291908181526020016000905b8282101561031e57838290600052602060002090600302016040518060600160405290816000820160009054906101000a900473ffffffffffffffffffffffffffffffffffffffff1673ffffffffffffffffffffffffffffffffffffffff1673ffffffffffffffffffffffffffffffffffffffff168152602001600182018054610283906108e4565b80601f01602080910402602001604051908101604052809291908181526020018280546102af906108e4565b80156102fc5780601f106102d1576101008083540402835291602001916102fc565b820191906000526020600020905b8154815290600101906020018083116102df57829003601f168201915b50505050508152602001600282015481525050815260200190600101906101fa565b50505050905090565b60008054905090565b82805461033c906108e4565b90600052602060002090601f01602090048101928261035e57600085556103a5565b82601f1061037757805160ff19168380011785556103a5565b828001600101855582156103a5579182015b828111156103a4578251825591602001919060010190610389565b5b5090506103b291906103b6565b5090565b5b808211156103cf5760008160009055506001016103b7565b5090565b6000604051905090565b600080fd5b600080fd5b600080fd5b600080fd5b6000601f19601f8301169050919050565b7f4e487b7100000000000000000000000000000000000000000000000000000000600052604160045260246000fd5b61043a826103f1565b810181811067ffffffffffffffff8211171561045957610458610402565b5b80604052505050565b600061046c6103d3565b90506104788282610431565b919050565b600067ffffffffffffffff82111561049857610497610402565b5b6104a1826103f1565b9050602081019050919050565b82818337600083830152505050565b60006104d06104cb8461047d565b610462565b9050828152602081018484840111156104ec576104eb6103ec565b5b6104f78482856104ae565b509392505050565b600082601f830112610514576105136103e7565b5b81356105248482602086016104bd565b91505092915050565b600060208284031215610543576105426103dd565b5b600082013567ffffffffffffffff811115610561576105606103e2565b5b61056d848285016104ff565b91505092915050565b600081519050919050565b600082825260208201905092915050565b6000819050602082019050919050565b600073ffffffffffffffffffffffffffffffffffffffff82169050919050565b60006105cd826105a2565b9050919050565b6105dd816105c2565b82525050565b600081519050919050565b600082825260208201905092915050565b60005b8381101561061d578082015181840152602081019050610602565b8381111561062c576000848401525b50505050565b600061063d826105e3565b61064781856105ee565b93506106578185602086016105ff565b610660816103f1565b840191505092915050565b6000819050919050565b61067e8161066b565b82525050565b600060608301600083015161069c60008601826105d4565b50602083015184820360208601526106b48282610632565b91505060408301516106c96040860182610675565b508091505092915050565b60006106e08383610684565b905092915050565b6000602082019050919050565b600061070082610576565b61070a8185610581565b93508360208202850161071c85610592565b8060005b85811015610758578484038952815161073985826106d4565b9450610744836106e8565b925060208a01995050600181019050610720565b50829750879550505050505092915050565b6000602082019050818103600083015261078481846106f5565b905092915050565b6107958161066b565b82525050565b60006020820190506107b0600083018461078c565b92915050565b7f4e487b7100000000000000000000000000000000000000000000000000000000600052601160045260246000fd5b60006107f08261066b565b91506107fb8361066b565b9250827fffffffffffffffffffffffffffffffffffffffffffffffffffffffffffffffff038211156108305761082f6107b6565b5b828201905092915050565b600082825260208201905092915050565b6000610857826105e3565b610861818561083b565b93506108718185602086016105ff565b61087a816103f1565b840191505092915050565b600060408201905061089a600083018561078c565b81810360208301526108ac818461084c565b90509392505050565b7f4e487b7100000000000000000000000000000000000000000000000000000000600052602260045260246000fd5b600060028204905060018216806108fc57607f821691505b602082108114156109105761090f6108b5565b5b5091905056fea26469706673582212209d0dd3040ebf48cbe5a7958a70790cea0f6480f88574663e9aae12d70ba2a95a64736f6c63430008090033",
    "linkReferences": {},
    "deployedLinkReferences": {}
}