{
  "_format": "hh-sol-artifact-1",
  "contractName": "MemberPortal",
  "sourceName": "contracts/Fsociety_Member.sol",
  "abi": [
    {
      "anonymous": false,
      "inputs": [
        {
          "indexed": true,
          "internalType": "address",
          "name": "member",
          "type": "address"
        }
      ],
      "name": "MemberLeft",
      "type": "event"
    },
    {
      "anonymous": false,
      "inputs": [
        {
          "indexed": true,
          "internalType": "address",
          "name": "member",
          "type": "address"
        },
        {
          "indexed": false,
          "internalType": "uint256",
          "name": "timestamp",
          "type": "uint256"
        },
        {
          "indexed": false,
          "internalType": "string",
          "name": "message",
          "type": "string"
        }
      ],
      "name": "NewMember",
      "type": "event"
    },
    {
      "inputs": [],
      "name": "getAllMembers",
      "outputs": [
        {
          "components": [
            {
              "internalType": "address",
              "name": "member",
              "type": "address"
            },
            {
              "internalType": "string",
              "name": "message",
              "type": "string"
            },
            {
              "internalType": "uint256",
              "name": "timestamp",
              "type": "uint256"
            }
          ],
          "internalType": "struct MemberPortal.Member[]",
          "name": "",
          "type": "tuple[]"
        }
      ],
      "stateMutability": "view",
      "type": "function"
    },
    {
      "inputs": [],
      "name": "getTotalMembers",
      "outputs": [
        {
          "internalType": "uint256",
          "name": "",
          "type": "uint256"
        }
      ],
      "stateMutability": "view",
      "type": "function"
    },
    {
      "inputs": [
        {
          "internalType": "address",
          "name": "",
          "type": "address"
        }
      ],
      "name": "isMember",
      "outputs": [
        {
          "internalType": "bool",
          "name": "",
          "type": "bool"
        }
      ],
      "stateMutability": "view",
      "type": "function"
    },
    {
      "inputs": [
        {
          "internalType": "string",
          "name": "_message",
          "type": "string"
        }
      ],
      "name": "join",
      "outputs": [],
      "stateMutability": "nonpayable",
      "type": "function"
    },
    {
      "inputs": [
        {
          "internalType": "uint256",
          "name": "",
          "type": "uint256"
        }
      ],
      "name": "members",
      "outputs": [
        {
          "internalType": "address",
          "name": "member",
          "type": "address"
        },
        {
          "internalType": "string",
          "name": "message",
          "type": "string"
        },
        {
          "internalType": "uint256",
          "name": "timestamp",
          "type": "uint256"
        }
      ],
      "stateMutability": "view",
      "type": "function"
    },
    {
      "inputs": [],
      "name": "quit",
      "outputs": [],
      "stateMutability": "nonpayable",
      "type": "function"
    },
    {
      "inputs": [],
      "name": "totalMembers",
      "outputs": [
        {
          "internalType": "uint256",
          "name": "",
          "type": "uint256"
        }
      ],
      "stateMutability": "view",
      "type": "function"
    }
  ],
  "bytecode": "0x608060405234801561001057600080fd5b506113ae806100206000396000f3fe608060405234801561001057600080fd5b506004361061007d5760003560e01c80637c0f6b351161005b5780637c0f6b35146100ee5780638f1803051461010c578063a230c5241461012a578063fc2b8cc31461015a5761007d565b80635daf08ca146100825780636a786b07146100b457806376e92559146100d0575b600080fd5b61009c60048036038101906100979190610b2b565b610164565b6040516100ab93929190610c41565b60405180910390f35b6100ce60048036038101906100c99190610db4565b610246565b005b6100d8610462565b6040516100e59190610dfd565b60405180910390f35b6100f6610468565b6040516101039190610f92565b60405180910390f35b6101146105b9565b6040516101219190610dfd565b60405180910390f35b610144600480360381019061013f9190610fe0565b6105c2565b6040516101519190611028565b60405180910390f35b6101626105e2565b005b6002818154811061017457600080fd5b90600052602060002090600302016000915090508060000160009054906101000a900473ffffffffffffffffffffffffffffffffffffffff16908060010180546101bd90611072565b80601f01602080910402602001604051908101604052809291908181526020018280546101e990611072565b80156102365780601f1061020b57610100808354040283529160200191610236565b820191906000526020600020905b81548152906001019060200180831161021957829003601f168201915b5050505050908060020154905083565b600160003373ffffffffffffffffffffffffffffffffffffffff1673ffffffffffffffffffffffffffffffffffffffff16815260200190815260200160002060009054906101000a900460ff16156102d3576040517f08c379a00000000000000000000000000000000000000000000000000000000081526004016102ca906110f0565b60405180910390fd5b60018060003373ffffffffffffffffffffffffffffffffffffffff1673ffffffffffffffffffffffffffffffffffffffff16815260200190815260200160002060006101000a81548160ff021916908315150217905550600160008082825461033c919061113f565b92505081905550600260405180606001604052803373ffffffffffffffffffffffffffffffffffffffff16815260200183815260200142815250908060018154018082558091505060019003906000526020600020906003020160009091909190915060008201518160000160006101000a81548173ffffffffffffffffffffffffffffffffffffffff021916908373ffffffffffffffffffffffffffffffffffffffff1602179055506020820151816001019080519060200190610402929190610971565b506040820151816002015550503373ffffffffffffffffffffffffffffffffffffffff167f8ed778be1ba0b73ad5415927591987b31faef39939a934a965142ee2d4169c424283604051610457929190611195565b60405180910390a250565b60005481565b60606002805480602002602001604051908101604052809291908181526020016000905b828210156105b057838290600052602060002090600302016040518060600160405290816000820160009054906101000a900473ffffffffffffffffffffffffffffffffffffffff1673ffffffffffffffffffffffffffffffffffffffff1673ffffffffffffffffffffffffffffffffffffffff16815260200160018201805461051590611072565b80601f016020809104026020016040519081016040528092919081815260200182805461054190611072565b801561058e5780601f106105635761010080835404028352916020019161058e565b820191906000526020600020905b81548152906001019060200180831161057157829003601f168201915b505050505081526020016002820154815250508152602001906001019061048c565b50505050905090565b60008054905090565b60016020528060005260406000206000915054906101000a900460ff1681565b600160003373ffffffffffffffffffffffffffffffffffffffff1673ffffffffffffffffffffffffffffffffffffffff16815260200190815260200160002060009054906101000a900460ff1661066e576040517f08c379a000000000000000000000000000000000000000000000000000000000815260040161066590611211565b60405180910390fd5b6000600160003373ffffffffffffffffffffffffffffffffffffffff1673ffffffffffffffffffffffffffffffffffffffff16815260200190815260200160002060006101000a81548160ff0219169083151502179055506106cf3361072d565b60016000808282546106e19190611231565b925050819055503373ffffffffffffffffffffffffffffffffffffffff167fbea911b50ccdd2233b28faa49766c3cbd0631608f32e5a724d7b83b32b681ad060405160405180910390a2565b60008060005b6002805490508110156107d8578373ffffffffffffffffffffffffffffffffffffffff166002828154811061076b5761076a611265565b5b906000526020600020906003020160000160009054906101000a900473ffffffffffffffffffffffffffffffffffffffff1673ffffffffffffffffffffffffffffffffffffffff1614156107c557809250600191506107d8565b80806107d090611294565b915050610733565b5080610819576040517f08c379a000000000000000000000000000000000000000000000000000000000815260040161081090611329565b60405180910390fd5b6002600160028054905061082d9190611231565b8154811061083e5761083d611265565b5b9060005260206000209060030201600283815481106108605761085f611265565b5b90600052602060002090600302016000820160009054906101000a900473ffffffffffffffffffffffffffffffffffffffff168160000160006101000a81548173ffffffffffffffffffffffffffffffffffffffff021916908373ffffffffffffffffffffffffffffffffffffffff16021790555060018201816001019080546108e990611072565b6108f49291906109f7565b5060028201548160020155905050600280548061091457610913611349565b5b6001900381819060005260206000209060030201600080820160006101000a81549073ffffffffffffffffffffffffffffffffffffffff02191690556001820160006109609190610a84565b600282016000905550509055505050565b82805461097d90611072565b90600052602060002090601f01602090048101928261099f57600085556109e6565b82601f106109b857805160ff19168380011785556109e6565b828001600101855582156109e6579182015b828111156109e55782518255916020019190600101906109ca565b5b5090506109f39190610ac4565b5090565b828054610a0390611072565b90600052602060002090601f016020900481019282610a255760008555610a73565b82601f10610a365780548555610a73565b82800160010185558215610a7357600052602060002091601f016020900482015b82811115610a72578254825591600101919060010190610a57565b5b509050610a809190610ac4565b5090565b508054610a9090611072565b6000825580601f10610aa25750610ac1565b601f016020900490600052602060002090810190610ac09190610ac4565b5b50565b5b80821115610add576000816000905550600101610ac5565b5090565b6000604051905090565b600080fd5b600080fd5b6000819050919050565b610b0881610af5565b8114610b1357600080fd5b50565b600081359050610b2581610aff565b92915050565b600060208284031215610b4157610b40610aeb565b5b6000610b4f84828501610b16565b91505092915050565b600073ffffffffffffffffffffffffffffffffffffffff82169050919050565b6000610b8382610b58565b9050919050565b610b9381610b78565b82525050565b600081519050919050565b600082825260208201905092915050565b60005b83811015610bd3578082015181840152602081019050610bb8565b83811115610be2576000848401525b50505050565b6000601f19601f8301169050919050565b6000610c0482610b99565b610c0e8185610ba4565b9350610c1e818560208601610bb5565b610c2781610be8565b840191505092915050565b610c3b81610af5565b82525050565b6000606082019050610c566000830186610b8a565b8181036020830152610c688185610bf9565b9050610c776040830184610c32565b949350505050565b600080fd5b600080fd5b7f4e487b7100000000000000000000000000000000000000000000000000000000600052604160045260246000fd5b610cc182610be8565b810181811067ffffffffffffffff82111715610ce057610cdf610c89565b5b80604052505050565b6000610cf3610ae1565b9050610cff8282610cb8565b919050565b600067ffffffffffffffff821115610d1f57610d1e610c89565b5b610d2882610be8565b9050602081019050919050565b82818337600083830152505050565b6000610d57610d5284610d04565b610ce9565b905082815260208101848484011115610d7357610d72610c84565b5b610d7e848285610d35565b509392505050565b600082601f830112610d9b57610d9a610c7f565b5b8135610dab848260208601610d44565b91505092915050565b600060208284031215610dca57610dc9610aeb565b5b600082013567ffffffffffffffff811115610de857610de7610af0565b5b610df484828501610d86565b91505092915050565b6000602082019050610e126000830184610c32565b92915050565b600081519050919050565b600082825260208201905092915050565b6000819050602082019050919050565b610e4d81610b78565b82525050565b600082825260208201905092915050565b6000610e6f82610b99565b610e798185610e53565b9350610e89818560208601610bb5565b610e9281610be8565b840191505092915050565b610ea681610af5565b82525050565b6000606083016000830151610ec46000860182610e44565b5060208301518482036020860152610edc8282610e64565b9150506040830151610ef16040860182610e9d565b508091505092915050565b6000610f088383610eac565b905092915050565b6000602082019050919050565b6000610f2882610e18565b610f328185610e23565b935083602082028501610f4485610e34565b8060005b85811015610f805784840389528151610f618582610efc565b9450610f6c83610f10565b925060208a01995050600181019050610f48565b50829750879550505050505092915050565b60006020820190508181036000830152610fac8184610f1d565b905092915050565b610fbd81610b78565b8114610fc857600080fd5b50565b600081359050610fda81610fb4565b92915050565b600060208284031215610ff657610ff5610aeb565b5b600061100484828501610fcb565b91505092915050565b60008115159050919050565b6110228161100d565b82525050565b600060208201905061103d6000830184611019565b92915050565b7f4e487b7100000000000000000000000000000000000000000000000000000000600052602260045260246000fd5b6000600282049050600182168061108a57607f821691505b6020821081141561109e5761109d611043565b5b50919050565b7f456e64657265636f206a612065206d656d62726f2e0000000000000000000000600082015250565b60006110da601583610ba4565b91506110e5826110a4565b602082019050919050565b60006020820190508181036000830152611109816110cd565b9050919050565b7f4e487b7100000000000000000000000000000000000000000000000000000000600052601160045260246000fd5b600061114a82610af5565b915061115583610af5565b9250827fffffffffffffffffffffffffffffffffffffffffffffffffffffffffffffffff0382111561118a57611189611110565b5b828201905092915050565b60006040820190506111aa6000830185610c32565b81810360208301526111bc8184610bf9565b90509392505050565b7f4e616f2065206d656d62726f2e00000000000000000000000000000000000000600082015250565b60006111fb600d83610ba4565b9150611206826111c5565b602082019050919050565b6000602082019050818103600083015261122a816111ee565b9050919050565b600061123c82610af5565b915061124783610af5565b92508282101561125a57611259611110565b5b828203905092915050565b7f4e487b7100000000000000000000000000000000000000000000000000000000600052603260045260246000fd5b600061129f82610af5565b91507fffffffffffffffffffffffffffffffffffffffffffffffffffffffffffffffff8214156112d2576112d1611110565b5b600182019050919050565b7f4d656d62726f206e616f20656e636f6e747261646f2e00000000000000000000600082015250565b6000611313601683610ba4565b915061131e826112dd565b602082019050919050565b6000602082019050818103600083015261134281611306565b9050919050565b7f4e487b7100000000000000000000000000000000000000000000000000000000600052603160045260246000fdfea2646970667358221220cb234967ad4c6e69862b57f2f2c4f42b0389698624babcb3cc982d03bee5290064736f6c63430008090033",
  "linkReferences": {},
  "deployedLinkReferences": {}
}