{
  "_format": "hh-sol-artifact-1",
  "contractName": "WavePortal",
  "sourceName": "contracts/WavePortal.sol",
  "abi": [
    {
      "inputs": [],
      "stateMutability": "nonpayable",
      "type": "constructor"
    },
    {
      "anonymous": false,
      "inputs": [
        {
          "indexed": true,
          "internalType": "address",
          "name": "from",
          "type": "address"
        },
        {
          "indexed": false,
          "internalType": "string",
          "name": "message",
          "type": "string"
        }
      ],
      "name": "NewWave",
      "type": "event"
    },
    {
      "inputs": [],
      "name": "getAllWaves",
      "outputs": [
        {
          "components": [
            {
              "internalType": "address",
              "name": "waver",
              "type": "address"
            },
            {
              "internalType": "string",
              "name": "message",
              "type": "string"
            }
          ],
          "internalType": "struct WavePortal.Wave[]",
          "name": "",
          "type": "tuple[]"
        }
      ],
      "stateMutability": "view",
      "type": "function"
    },
    {
      "inputs": [],
      "name": "getTotalWaves",
      "outputs": [
        {
          "internalType": "uint256",
          "name": "",
          "type": "uint256"
        }
      ],
      "stateMutability": "view",
      "type": "function"
    },
    {
      "inputs": [
        {
          "internalType": "string",
          "name": "_message",
          "type": "string"
        }
      ],
      "name": "wave",
      "outputs": [],
      "stateMutability": "nonpayable",
      "type": "function"
    }
  ],
  "bytecode": "0x60806040523480156200001157600080fd5b506200005d6040518060400160405280601481526020017f636f6e747261746f20696e74656c6967656e74650000000000000000000000008152506200006360201b620003961760201c565b620001f7565b62000103816040516024016200007a919062000170565b6040516020818303038152906040527f41304fac000000000000000000000000000000000000000000000000000000007bffffffffffffffffffffffffffffffffffffffffffffffffffffffff19166020820180517bffffffffffffffffffffffffffffffffffffffffffffffffffffffff83818316178352505050506200010660201b60201c565b50565b60008151905060006a636f6e736f6c652e6c6f679050602083016000808483855afa5050505050565b60006200013c8262000194565b6200014881856200019f565b93506200015a818560208601620001b0565b6200016581620001e6565b840191505092915050565b600060208201905081810360008301526200018c81846200012f565b905092915050565b600081519050919050565b600082825260208201905092915050565b60005b83811015620001d0578082015181840152602081019050620001b3565b83811115620001e0576000848401525b50505050565b6000601f19601f8301169050919050565b610bb980620002076000396000f3fe608060405234801561001057600080fd5b50600436106100415760003560e01c8063449d46c0146100465780639a2cdc0814610062578063bd43a90814610080575b600080fd5b610060600480360381019061005b919061069e565b61009e565b005b61006a610204565b60405161007791906108fd565b60405180910390f35b61008861024f565b6040516100959190610844565b60405180910390f35b60016000808282546100b091906109df565b925050819055506100f76040518060400160405280602081526020017f257320656e74726f7520636f6d206f2073656775696e7465206e69636b202573815250338361042f565b600160405180604001604052803373ffffffffffffffffffffffffffffffffffffffff16815260200183815250908060018154018082558091505060019003906000526020600020906002020160009091909190915060008201518160000160006101000a81548173ffffffffffffffffffffffffffffffffffffffff021916908373ffffffffffffffffffffffffffffffffffffffff16021790555060208201518160010190805190602001906101b0929190610593565b5050503373ffffffffffffffffffffffffffffffffffffffff167fc8c0ec36e816f76593f2a64d116dc29d017ef338939501f124fa3c5d82de72bb826040516101f99190610866565b60405180910390a250565b60006102476040518060400160405280601a81526020017f54656d6f73202564206d656d62726f73206e6f20746f74616c210000000000008152506000546104ce565b600054905090565b60606001805480602002602001604051908101604052809291908181526020016000905b8282101561038d57838290600052602060002090600202016040518060400160405290816000820160009054906101000a900473ffffffffffffffffffffffffffffffffffffffff1673ffffffffffffffffffffffffffffffffffffffff1673ffffffffffffffffffffffffffffffffffffffff1681526020016001820180546102fc90610ab3565b80601f016020809104026020016040519081016040528092919081815260200182805461032890610ab3565b80156103755780601f1061034a57610100808354040283529160200191610375565b820191906000526020600020905b81548152906001019060200180831161035857829003601f168201915b50505050508152505081526020019060010190610273565b50505050905090565b61042c816040516024016103aa9190610866565b6040516020818303038152906040527f41304fac000000000000000000000000000000000000000000000000000000007bffffffffffffffffffffffffffffffffffffffffffffffffffffffff19166020820180517bffffffffffffffffffffffffffffffffffffffffffffffffffffffff838183161783525050505061056a565b50565b6104c983838360405160240161044793929190610888565b6040516020818303038152906040527fe0e9ad4f000000000000000000000000000000000000000000000000000000007bffffffffffffffffffffffffffffffffffffffffffffffffffffffff19166020820180517bffffffffffffffffffffffffffffffffffffffffffffffffffffffff838183161783525050505061056a565b505050565b61056682826040516024016104e49291906108cd565b6040516020818303038152906040527fb60e72cc000000000000000000000000000000000000000000000000000000007bffffffffffffffffffffffffffffffffffffffffffffffffffffffff19166020820180517bffffffffffffffffffffffffffffffffffffffffffffffffffffffff838183161783525050505061056a565b5050565b60008151905060006a636f6e736f6c652e6c6f679050602083016000808483855afa5050505050565b82805461059f90610ab3565b90600052602060002090601f0160209004810192826105c15760008555610608565b82601f106105da57805160ff1916838001178555610608565b82800160010185558215610608579182015b828111156106075782518255916020019190600101906105ec565b5b5090506106159190610619565b5090565b5b8082111561063257600081600090555060010161061a565b5090565b600061064961064484610949565b610918565b90508281526020810184848401111561066157600080fd5b61066c848285610a71565b509392505050565b600082601f83011261068557600080fd5b8135610695848260208601610636565b91505092915050565b6000602082840312156106b057600080fd5b600082013567ffffffffffffffff8111156106ca57600080fd5b6106d684828501610674565b91505092915050565b60006106eb83836107f8565b905092915050565b6106fc81610a35565b82525050565b61070b81610a35565b82525050565b600061071c82610989565b61072681856109ac565b93508360208202850161073885610979565b8060005b85811015610774578484038952815161075585826106df565b94506107608361099f565b925060208a0199505060018101905061073c565b50829750879550505050505092915050565b600061079182610994565b61079b81856109bd565b93506107ab818560208601610a80565b6107b481610b72565b840191505092915050565b60006107ca82610994565b6107d481856109ce565b93506107e4818560208601610a80565b6107ed81610b72565b840191505092915050565b600060408301600083015161081060008601826106f3565b50602083015184820360208601526108288282610786565b9150508091505092915050565b61083e81610a67565b82525050565b6000602082019050818103600083015261085e8184610711565b905092915050565b6000602082019050818103600083015261088081846107bf565b905092915050565b600060608201905081810360008301526108a281866107bf565b90506108b16020830185610702565b81810360408301526108c381846107bf565b9050949350505050565b600060408201905081810360008301526108e781856107bf565b90506108f66020830184610835565b9392505050565b60006020820190506109126000830184610835565b92915050565b6000604051905081810181811067ffffffffffffffff8211171561093f5761093e610b43565b5b8060405250919050565b600067ffffffffffffffff82111561096457610963610b43565b5b601f19601f8301169050602081019050919050565b6000819050602082019050919050565b600081519050919050565b600081519050919050565b6000602082019050919050565b600082825260208201905092915050565b600082825260208201905092915050565b600082825260208201905092915050565b60006109ea82610a67565b91506109f583610a67565b9250827fffffffffffffffffffffffffffffffffffffffffffffffffffffffffffffffff03821115610a2a57610a29610ae5565b5b828201905092915050565b6000610a4082610a47565b9050919050565b600073ffffffffffffffffffffffffffffffffffffffff82169050919050565b6000819050919050565b82818337600083830152505050565b60005b83811015610a9e578082015181840152602081019050610a83565b83811115610aad576000848401525b50505050565b60006002820490506001821680610acb57607f821691505b60208210811415610adf57610ade610b14565b5b50919050565b7f4e487b7100000000000000000000000000000000000000000000000000000000600052601160045260246000fd5b7f4e487b7100000000000000000000000000000000000000000000000000000000600052602260045260246000fd5b7f4e487b7100000000000000000000000000000000000000000000000000000000600052604160045260246000fd5b6000601f19601f830116905091905056fea2646970667358221220b5741ac11b7c4e4278615db4e71cd2a561d066a3f3b23dad22e145ea99bf9b8f64736f6c63430008000033",
  "linkReferences": {},
  "deployedLinkReferences": {}
}